:100000000C9446000C9465000C9465000C946500FB
:100010000C9465000C9465000C9465000C946500CC
:100020000C9465000C9465000C9465000C946500BC
:100030000C9465000C94AC020C9465000C94650063
:100040000C9465000C9465000C9465000C9465009C
:100050000C9465000C9465000C9465000C9465008C
:100060000C9465000C9465000C9465000C9465007C
:100070000C9465000C9465000C9465000C9465006C
:100080000C9465000C9465000C94650011241FBE4F
:10009000CFEFD0E4DEBFCDBF11E0A0E0B1E0ECE0F7
:1000A000FEE000E00BBF02C007900D92AC31B1073B
:1000B000D9F721E0ACE1B1E001C01D92AC35B20747
:1000C000E1F70E9497040C94BF060C940000CF93B4
:1000D000DF9300D00F92CDB7DEB789837B836A832D
:1000E00089818A3031F48A819B81BC018DE00E9434
:1000F000670080EC90E0FC018081882F90E08072A6
:100100009927892BB1F386EC90E02981FC012083AB
:1001100080E090E00F900F900F90DF91CF910895C5
:10012000CF93DF9300D00F92CDB7DEB789836A8378
:100130004B838B81882371F08A81282F30E081E006
:1001400090E002C0880F991F2A95E2F7982F8981C5
:10015000892B0EC08A81282F30E081E090E002C018
:10016000880F991F2A95E2F7982F90958981892306
:100170000F900F900F90DF91CF910895CF93DF9361
:1001800000D0CDB7DEB789836A838A81282F30E01B
:1001900081E090E002C0880F991F2A95E2F7982F1E
:1001A000898189230F900F90DF91CF9108950F934C
:1001B0001F93CF93DF93CDB7DEB708E210E040E0A6
:1001C00064E08FEF0E949000F8018083000086E2D7
:1001D00090E0FC018081809560E00E94BE00882351
:1001E00011F081E3D3C086E290E0FC01808180952C
:1001F00061E00E94BE00882311F084E3C7C086E25C
:1002000090E0FC018081809562E00E94BE0088231E
:1002100011F087E3BBC086E290E0FC01808180950D
:1002200063E00E94BE00882311F08AE2AFC008E2BA
:1002300010E040E065E08FEF0E949000F8018083BD
:10024000000086E290E0FC018081809560E00E94E1
:10025000BE00882311F082E399C086E290E0FC01A1
:100260008081809561E00E94BE00882311F085E3C3
:100270008DC086E290E0FC018081809562E00E9462
:10028000BE00882311F088E381C086E290E0FC0183
:100290008081809563E00E94BE00882311F080E396
:1002A00075C008E210E040E066E08FEF0E94900029
:1002B000F8018083000086E290E0FC018081809557
:1002C00060E00E94BE00882311F083E35FC086E2F5
:1002D00090E0FC018081809561E00E94BE0088234F
:1002E00011F086E353C086E290E0FC0180818095A6
:1002F00062E00E94BE00882311F089E347C086E2D5
:1003000090E0FC018081809563E00E94BE0088231C
:1003100011F083E23BC008E210E040E067E08FEFBD
:100320000E949000F8018083000086E290E0FC01CA
:100330008081809560E00E94BE00882311F081E4F6
:1003400025C086E290E0FC018081809561E00E94FA
:10035000BE00882311F082E419C086E290E0FC011F
:100360008081809562E00E94BE00882311F083E4C2
:100370000DC086E290E0FC018081809563E00E94E0
:10038000BE00882311F084E401C080E0DF91CF91AA
:100390001F910F9108950F931F93CF93DF93CDB7C4
:1003A000DEB768970FB6F894DEBF0FBECDBF6D8382
:1003B0007E838F83988729873A874B875C878D81D7
:1003C0009E81AF81B885898B9A8BAB8BBC8B09855D
:1003D0001A852B853C8569897A898B899C89A90135
:1003E00098010E9494066D8B7E8B8F8B988F8D89E0
:1003F0009E89AF89B88D89839A83AB83BC838981B9
:100400009A81AB81BC81892B8A2B8B2B29F489851E
:100410009A85AB85BC8511C089859A85AB85BC85DD
:100420008D839E83AF83B88789819A81AB81BC819C
:1004300089879A87AB87BC87C2CF8D879E87AF8716
:10044000B88B6D857E858F85988968960FB6F894F0
:10045000DEBF0FBECDBFDF91CF911F910F910895E9
:10046000CF93DF9300D000D0CDB7DEB769837A8316
:100470008B839C8389819A81AB81BC8180930E019F
:1004800090930F01A0931001B093110180910E0180
:1004900090910F01A0911001B091110180931D0165
:1004A00090931E01A0931F01B093200100000F90B4
:1004B0000F900F900F90DF91CF910895CF93DF931E
:1004C000CDB7DEB781E890E02BE0FC01208388E81F
:1004D00090E02DE730E0FC01318320838FE690E04F
:1004E00022E0FC01208384E890E0FC01118210826C
:1004F00080910E0190910F01A0911001B091110116
:1005000080931D0190931E01A0931F01B0932001C1
:100510008FE590E0FC0120818FE590E02068FC01F0
:1005200020830000DF91CF910895CF93DF93CDB763
:10053000DEB781E890E0FC0110820000DF91CF91EE
:100540000895CF93DF93CDB7DEB781E080931C0190
:100550000000DF91CF9108951F920F920FB60F9276
:1005600011240BB60F922F933F934F935F936F938A
:100570007F938F939F93AF93BF93EF93FF93CF930B
:10058000DF93CDB7DEB780911D0190911E01A09140
:100590001F01B09120010197A109B10980931D01AC
:1005A00090931E01A0931F01B093200180911D0123
:1005B00090911E01A0911F01B0912001892B8A2BDF
:1005C0008B2B91F40E94A10280910E0190910F015A
:1005D000A0911001B091110180931D0190931E0113
:1005E000A0931F01B09320010000DF91CF91FF91F4
:1005F000EF91BF91AF919F918F917F916F915F919B
:100600004F913F912F910F900BBE0F900FBE0F9007
:100610001F901895CF93DF9300D00F92CDB7DEB720
:100620009B838A8380E290E0FC018081882F90E0A8
:100630008170992721E0892B09F020E029838A81A4
:100640009B810297E1F08A819B81039714F58A814F
:100650009B81892B29F08A819B81019759F019C0D0
:1006600081E09981913009F080E0882F90E09B83B0
:100670008A8312C082E090E09B838A830DC081E070
:100680009981992309F480E0882F90E09B838A83E5
:1006900003C01B821A8200008A819B810297A9F005
:1006A0008A819B810397A4F48A819B81892B79F0AD
:1006B0008A819B81019761F49091240181E09923C3
:1006C00009F080E08093240103C0000001C0000015
:1006D0008A819B810F900F900F90DF91CF910895A9
:1006E000CF93DF9300D0CDB7DEB79A83898389811A
:1006F0009A81892B29F089819A81019761F016C02E
:100700009091240181E0992309F080E0882F90E006
:100710009A8389830EC09091240181E0992309F086
:1007200080E0882F90E09A83898303C01A8219821F
:10073000000089819A81892B69F089819A810197CA
:1007400051F49091210181E0992309F080E0809398
:10075000210101C0000089819A810F900F90DF91E3
:10076000CF910895CF93DF9300D0CDB7DEB79A83B2
:10077000898389819A81892B29F089819A810197BE
:1007800061F016C09091240181E0992309F080E086
:10079000882F90E09A8389830EC09091240181E094
:1007A000992309F080E0882F90E09A83898303C021
:1007B0001A821982000089819A81892B69F08981C6
:1007C0009A81019751F49091220181E0992309F0D7
:1007D00080E08093220101C0000089819A810F90FE
:1007E0000F90DF91CF910895CF93DF9300D0CDB7D5
:1007F000DEB79A83898389819A81892B19F41A82B9
:10080000198203C01A821982000089819A81892B7A
:1008100079F4809123018F3131F085E290E020E876
:10082000FC01208304C085E290E0FC0110820000FE
:1008300089819A810F900F90DF91CF910895CF9386
:10084000DF9300D00F92CDB7DEB79B838A838A8176
:100850009B81892B09F05FC00E94D7008983898121
:10086000882F90E0092E000CAA0BBB0B8534910554
:10087000A105B10508F048C08F53994FFC010C94B5
:10088000B6068FE18093230143C081E0809323016A
:100890003FC082E0809323013BC083E0809323012B
:1008A00037C084E08093230133C085E08093230127
:1008B0002FC086E0809323012BC087E08093230123
:1008C00027C088E08093230123C089E0809323011F
:1008D0001FC08AE0809323011BC08BE0809323011B
:1008E00017C08CE08093230113C08DE08093230117
:1008F0000FC08EE0809323010BC01092230108C02B
:100900008FE08093230104C08BE1809323010000DA
:100910001B821A8203C01B821A82000000008A8197
:100920009B810F900F900F90DF91CF910895CF93FF
:10093000DF93CDB7DEB76F970FB6F894DEBF0FBE6B
:10094000CDBF81E290E0DC011C9282E290E02FEFCB
:10095000FC01208384E290E02FEFDC012C9385E200
:1009600090E0FC01108287E290E020EFDC012C9304
:1009700088E290E02FE0FC0120838AE0E2E1F1E0F0
:10098000DE011A9601900D928A95E1F785E090E0DC
:1009900098878F838FEF898789858093250182E3EC
:1009A00090E0A0E0B0E08093260190932701A0930F
:1009B0002801B09329018091260190912701A091EF
:1009C0002801B091290180932A0190932B01A093D3
:1009D0002C01B0932D018AE093E090932F01809336
:1009E0002E0189858093300184EF91E0A0E0B0E092
:1009F0008093310190933201A0933301B09334017D
:100A00008091310190913201A0913301B091340174
:100A10008093350190933601A0933701B09338014C
:100A200080E793E090933A01809339018985809320
:100A30003B0188EE93E0A0E0B0E080933C0190930E
:100A40003D01A0933E01B0933F0180913C01909104
:100A50003D01A0913E01B0913F01809340019093F0
:100A60004101A0934201B093430182EB93E0909344
:100A70004501809344018985809346018AE090E096
:100A8000A0E0B0E08093470190934801A093490112
:100A9000B0934A018091470190914801A09149018A
:100AA000B0914A0180934B0190934C01A0934D016A
:100AB000B0934E0184EF93E09093500180934F01E7
:100AC00089858093510184E690E0A0E0B0E08093B6
:100AD000520190935301A0935401B093550180911A
:100AE000520190915301A0915401B091550180930E
:100AF000560190935701A0935801B09359018FE18B
:100B000094E090935B0180935A018A859B85FC0158
:100B100081819281A381B48189839A83AB83BC83D1
:100B200081E090E09E838D8333C08D819E81880F0C
:100B3000991F9E012F5F3F4F820F931F0996DC0183
:100B40008D919C91FC0181819281A381B481298145
:100B50003A814B815C812C8B3D8B4E8B5F8B9C0152
:100B6000AD016C897D898E899F890E94CB01688F38
:100B7000798F8A8F9B8F888D998DAA8DBB8D898364
:100B80009A83AB83BC838D819E8101969E838D83E6
:100B90002D813E818F8198852817390730F2298170
:100BA0003A814B815C812C8F3D8F4E8F5F8F6C8D96
:100BB0007D8D8E8D9F8D0E9430020E945E021E826E
:100BC0001D82A2C08D819E81880F991F9E012F5F7B
:100BD0003F4F820F931F0996DC018D919C91FC0180
:100BE00045815681678170858D819E81880F991F0F
:100BF0009E012F5F3F4F820F931F0996DC018D915D
:100C00009C91FC0181819281A381B481481759078D
:100C10006A077B0709F047C08D819E81880F991F65
:100C20009E012F5F3F4F820F931F0996DC018D912C
:100C30009C91FC01218532858D819E81880F991FB1
:100C4000AE014F5F5F4F840F951F0996DC018D91B8
:100C50009C91FC018081082E000C990BF9010995EB
:100C6000AC018D819E81880F991F9E012F5F3F4FA0
:100C7000820F931F0996DC018D919C91242FFC011A
:100C800020838D819E81880F991F9E012F5F3F4F8A
:100C9000820F931F0996DC018D919C91FC011582B6
:100CA0001682178210868D819E81880F991F9E0162
:100CB0002F5F3F4F820F931F0996DC018D919C910E
:100CC000FC0145815681678170858D819E81880FE9
:100CD000991F9E012F5F3F4F820F931F0996DC01E2
:100CE0002D913C9189819A81AB81BC81840F951FA4
:100CF000A61FB71FF90185839683A783B0878D81CF
:100D00009E8101969E838D832D813E818F81988562
:100D10002817390708F456CF000080911C0188235A
:100D2000E1F310921C014BCFA1E21A2EAA1BBB1BB0
:100D3000FD010DC0AA1FBB1FEE1FFF1FA217B307A7
:100D4000E407F50720F0A21BB30BE40BF50B661FBD
:100D5000771F881F991F1A9469F760957095809581
:100D600090959B01AC01BD01CF010895EE0FFF1FCF
:100D70000024001C0BBE0790F691E02D0994F89416
:100D8000FFCF410484048404840484048404840420
:100D90008404840484048404840484048404840413
:100DA0008404840484048404840484048404840403
:100DB00084048404840484048404840484048404F3
:100DC00084048404840484048004840484048404E7
:100DD00084048404840479048404840484048404DE
:100DE00084047D04450449044D0451045504590408
:100DF0005D0461046504840484048404840484041C
:0C0E00008404840469046D04710475040A
:100E0C00000000020000000067000000000001006C
:0C0E1C000000250130013B01460151019E
:00000001FF
